S01400004C696E65626F7446696E616C2E7372656359
S11300000C9489010C94AA010C9403040C948A04A2
S11300100C94AA010C94AA010C94AA010C94AA01B0
S11300200C94AA010C94AA010C94AA010C94AA01A0
S11300300C94AA010C94AA010C94630B0C94AA01CD
S11300400C94D70B0C94AA010C94AA010C94AA0149
S11300500C94AA010C94AA010C94AA010C94AA0170
S11300600C94AA010C94AA010C94AA010C94AA0160
S11300700C94AA010C94AA010C94AA010C94AA0150
S11300800C94AA010C94AA010C9434020C94AA01B5
S11300900C94AA010C94AA010C94AA010C94AA0130
S11300A00C94AA010C94AA010C94AA010C941105B5
S11300B00C9498050C94AA010C94F1070C94AA01D1
S11300C00C94AA010C94AA010C94AA010C94AA0100
S11300D00C94AA010C94AA010C94AA010C94AA01F0
S11300E00C94AA010C94AA010C94A2080C94AA01E1
S11300F00C945B080C94AA010C94AA010C94AA0118
S11301000C94AA010C94AA010C94AA010C94AA01BF
S11301100C94AA010C94AA010C94AA010C94AC01AD
S11301200C94AA010C94AA010C94AA010C94AA019F
S11301300C94AA010C94AA010C94AA010C94AA018F
S11301400C94AA010C94AA010C94AA010C94AA017F
S11301500C94AA010C94AA010C94AA010C94AA016F
S11301600C94AA010C94AA010C94AA010C94AA015F
S11301700C94AA010C94AA010C94AA010C94AA014F
S11301800C94AA010C94AA010C94AA010C94AA013F
S11301900C94AA010C94AA010C94AA010C94AA012F
S11301A00C94AA010C94AA010C94AA010C94AA011F
S11301B00C94AA010C94AA010C94AA010C94AA010F
S11301C00C94AA010C94AA010C94AA010C94AA01FF
S11301D00C94AA010C94AA010C94AA010C94AA01EF
S11301E00C94AA010C94AA010C94AA010C94AA01DF
S11301F00C94AA010C94AA010C94AA010C94001C5E
S11302000C94C8110C94761C0C94421A0C947C1D0A
S11302106E616E00696E660000407A10F35A00A0A9
S1130220724E18090010A5D4E80000E876481700BB
S113023000E40B54020000CA9A3B000000E1F505FB
S1130240000080969800000040420F000000A08645
S113025001000000102700000000E8030000000077
S11302606400000000000A0000000000010000001B
S113027000002C76D888DC674F0823DFC1DFAE5935
S1130280E1B1B796E5E3E453C63AE651997696E8C8
S1130290E6C28426EB898C9B62ED407C6FFCEFBC4C
S11302A09C9F40F2BAA56FA5F490055A2AF75C9377
S11302B06B6CF9676DC11BFCE0E40D47FEF520E6AD
S11302C0B500D0ED902E0300943577050080841E90
S11302D0080000204E0A000000C80C333333330FEB
S11302E0986E12831141EF8D2114893BE65516CF88
S11302F0FEE6DB18D1844B381BF77C1D901DA4BB94
S1130300E424203284725E228100C9F124ECA1E548
S11303103D2711241FBECFEFCDBFDFE9DEBF00E0D4
S11303200CBF10E2A0E0B0E2E6ECFCE400E00BBF9E
S113033002C007900D92AE3EB107D9F722E2AEEEAD
S1130340B0E201C01D92AC32B207E1F70E94201A5C
S11303500C9461260C9400001F920F920FB60F921A
S113036011240BB60F922F933F934F935F936F9388
S11303707F938F939F93AF93BF93EF93FF93CF9309
S1130380DF931F92CDB7DEB71982BE016F5F7F4F37
S113039080911222909113220E94B60E89818111BC
S11303A00E943F0B0F90DF91CF91FF91EF91BF918E
S11303B0AF919F918F917F916F915F914F913F91F9
S11303C02F910F900BBE0F900FBE0F901F9018959A
S11303D0E0E2F6E098EF928389E5838B848B858B4A
S11303E0868B878B928781E0818740E061E08AE099
S11303F00E94480D8093F2209093F32008958091F9
S1130400280683FF12C080E19091280694FD88603D
S11304109091280695FD84609091280696FD82604F
S11304209091280697FD03C0089580E0EDCF816088
S11304300895CF93DF931F92CDB7DEB7AC01BE0111
S11304406F5F7F4F8091F2209091F3200E94090FFB
S1130450813029F080E00F90DF91CF910895898158
S11304600F90DF91CF9108951F920F920FB60F92C4
S113047011240BB60F92CF92DF92EF92FF920F935B
S11304801F932F933F934F935F936F937F938F9318
S11304909F93AF93BF93EF93FF93CF93DF931F92F9
S11304A01F92CDB7DEB71982809120089091210860
S11304B0C0902022D0902122E0902222F09023228A
S11304C0C80ED91EE11CF11C0E94FF018A834091D1
S11304D0EE205091EF206091F0207091F12097016F
S11304E08601041B150B260B370BB901A8014130FB
S11304F0584A6146710510F0811121C0898181112A
S11305000E943F0B0F900F90DF91CF91FF91EF91DD
S1130510BF91AF919F918F917F916F915F914F9117
S11305203F912F911F910F91FF90EF90DF90CF900B
S11305300F900BBE0F900FBE0F901F90189520E0E8
S1130540AE014F5F5F4FBE016E5F7F4F8091F2201F
S11305509091F3200E945B0EC092EE20D092EF2087
S1130560E092F020F092F120C9CFDC011092F72044
S11305701092F8209C919923B1F0FD01319680E40A
S11305809093A00A9091A10A96FFFCCF8093A10AB0
S11305909F012A1B3B0B91919111F2CF2093F720DD
S11305A03093F82008950895FC011092F7201092DA
S11305B0F82090819923E1F0319620E030E080E446
S11305C0261737071CF06115710569F49093A00A8A
S11305D09091A10A96FFFCCF8093A10A2F5F3F4F11
S11305E091919111EDCF2093F7203093F820089545
S11305F00895CF92DF92EF92FF920F931F93CF93C0
S1130600DF937C0180E197E28093F5209093F620BC
S11306101092F420C5E0D0E0C12CE0E1F7E2A0E4C0
S1130620DA2E0AE010E0C701BF010E947123AB017A
S11306309B01ADECBCEC0E94992396958795969509
S11306408795969587959C01220F331F880F991FD4
S1130650880F991F880F991F820F931F9A01281BD7
S1130660390BC901009711F4CC2059F0805D8093B7
S1130670A00A8091A10A86FFFCCFD092A10ACC24C3
S1130680C394CF01B8010E948523FB01219759F639
S1130690C092F4206093F5207093F620DF91CF91FF
S11306A01F910F91FF90EF90DF90CF900895E0EAB3
S11306B0F6E08FE1818380E4848B20E12583E0E010
S11306C0FBE091E0908393EF918340E050E146A3F7
S11306D057A3E0E4F6E090EC9283868B878B8287C5
S11306E090E8938795E09187E0E8F6E030E3328381
S11306F0848B858B228780E28387918740E065E045
S113070084E10E94480D80931A2290931B2208953D
S113071020E1009769F56115710509F457C020932C
S1130720A606813020EF92070CF457C0919581956D
S113073091098093280B9093290B10922A0B109205
S11307402B0B7195619571091616170644F16130EA
S113075020EF72070CF444C07195619571096093A0
S11307602C0B70932D0B10922E0B10922F0B0895BF
S11307702093A60618161906A4F61092280B1092B8
S1130780290B811520E19207F4F480932A0B9093AE
S11307902B0B71956195710916161706C4F6109204
S11307A02C0B10922D0B611580E178072CF46093CB
S11307B02E0B70932F0B08956FEF7FE060932E0B39
S11307C070932F0B08958FEF9FE0DFCF2093A50642
S11307D0813020EF92070CF0A9CF81E090EFA6CFF3
S11307E061E070EFB9CF0FB6F8940F9240911622E2
S11307F05091172220911822309119220F900FBE88
S1130800BA01C90108951F920F920FB60F921124D5
S11308100BB60F921F932F933F934F935F936F9356
S11308207F938F939F93AF93BF93EF93FF93CF9354
S1130830DF9300D000D0CDB7DEB71E822091200810
S1130840309121088091202290912122A09122228E
S1130850B0912322820F931FA11DB11D89839A8316
S1130860AB83BC8380914806182F107886FF37C06D
S113087081E08D8320E0AE014A5F5F4FBE016F5F70
S11308807F4F80911A2290911B220E945B0E1123AC
S1130890B9F1809116229091172201968093162225
S11308A0909317228E8181110E943F0B2696CDBF13
S11308B0DEBFDF91CF91FF91EF91BF91AF919F91F7
S11308C08F917F916F915F914F913F912F911F91E4
S11308D00F900BBE0F900FBE0F901F90189585E0E0
S11308E08D8320E0AE014A5F5F4FBE016F5F7F4F93
S11308F080911A2290911B220E945B0E112349F2CF
S1130900809116229091172201978093162290933A
S11309101722C8CF1F920F920FB60F9211240BB655
S11309200F921F932F933F934F935F936F937F93F4
S11309308F939F93AF93BF93EF93FF93CF93DF93E3
S113094000D000D0CDB7DEB71E82209120083091B0
S113095021088091202290912122A0912222B091FD
S11309602322820F931FA11DB11D89839A83AB8318
S1130970BC8380914806182F107487FF37C082E02B
S11309808D8320E0AE014A5F5F4FBE016F5F7F4FF2
S113099080911A2290911B220E945B0E1123B9F1BF
S11309A0809116229091172201978093162290939A
S11309B017228E8181110E943F0B2696CDBFDEBF88
S11309C0DF91CF91FF91EF91BF91AF919F918F9163
S11309D07F916F915F914F913F912F911F910F9054
S11309E00BBE0F900FBE0F901F90189586E08D835D
S11309F020E0AE014A5F5F4FBE016F5F7F4F809181
S1130A001A2290911B220E945B0E112349F28091BD
S1130A101622909117220196809316229093172202
S1130A20C8CF1F920F920FB60F9211240BB60F92DC
S1130A301F932F933F934F935F936F937F938F9362
S1130A409F93AF93BF93EF93FF93CF93DF9300D024
S1130A5000D0CDB7DEB71E82209120083091210846
S1130A608091202290912122A0912222B0912322D0
S1130A70820F931FA11DB11D89839A83AB83BC830D
S1130A8080918806182F107284FF37C083E08D830D
S1130A9020E0AE014A5F5F4FBE016F5F7F4F8091E0
S1130AA01A2290911B220E945B0E1123B9F18091AE
S1130AB0182290911922019680931822909319225A
S1130AC08E8181110E943F0B2696CDBFDEBFDF9140
S1130AD0CF91FF91EF91BF91AF919F918F917F91B2
S1130AE06F915F914F913F912F911F910F900BBE8A
S1130AF00F900FBE0F901F90189587E08D8320E014
S1130B00AE014A5F5F4FBE016F5F7F4F80911A2233
S1130B1090911B220E945B0E112349F280911822AE
S1130B209091192201978093182290931922C8CF8B
S1130B301F920F920FB60F9211240BB60F921F93B0
S1130B402F933F934F935F936F937F938F939F93D1
S1130B50AF93BF93EF93FF93CF93DF9300D000D075
S1130B60CDB7DEB71E8220912008309121088091F4
S1130B70202290912122A0912222B0912322820F3F
S1130B80931FA11DB11D89839A83AB83BC8380917C
S1130B908806182F107284FF1CC084E08D8320E027
S1130BA0AE014A5F5F4FBE016F5F7F4F80911A2293
S1130BB090911B220E945B0E112309F447C080917F
S1130BC01822909119220197809318229093192248
S1130BD01AC088E08D8320E0AE014A5F5F4FBE01FA
S1130BE06F5F7F4F80911A2290911B220E945B0EAF
S1130BF08091182290911922111122C0019780939B
S1130C001822909319228E8181110E943F0B2696FF
S1130C10CDBFDEBFDF91CF91FF91EF91BF91AF9137
S1130C209F918F917F916F915F914F913F912F9100
S1130C301F910F900BBE0F900FBE0F901F90189531
S1130C4001968093182290931922DDCF8091182267
S1130C509091192201968093182290931922D3CF50
S1130C600FB6F8940F921092162210921722109237
S1130C701822109219220F900FBE0895CF93C82FF7
S1130C80809148218E3450F590914921911106C0EC
S1130C90E82FF0E0E650FF4D2FEF2083C11110C084
S1130CA0E82FF0E0E650FF4D20E830E0092E02C0C6
S1130CB0359527950A94E2F72095308123232083E4
S1130CC09F5F983039F4109249218F5F80934821B7
S1130CD0CF91089590934921CF91089567E270E0F0
S1130CE088E090E20E94EE19909149218091482178
S1130CF091110DC0E82FF0E0E650FF4D2FEF208357
S1130D008E3460F281E080934921CF9108958E342E
S1130D1028F29F5F9830B9F2DDCF80E00E943E0652
S1130D2081E00E943E0681E00E943E0681E00E942E
S1130D303E0681E00C943E0680E00E943E0680E080
S1130D400E943E0680E00E943E0680E00E943E062D
S1130D5081E00C943E06CF93DF93D82FC8E005C002
S1130D600E948D06DD0FC15039F0D7FFF9CF0E94E4
S1130D709C06DD0FC150C9F7DF91CF910895E0E0E3
S1130D80F6E080E48183868308953F924F925F92D8
S1130D906F927F928F929F92AF92BF92CF92DF9287
S1130DA0EF92FF920F931F93CF93DF93362E472E2C
S1130DB0582ED22E132FD42F88E08093610690E40E
S1130DC0909373061092A3098093A40980EC8093F6
S1130DD0A50985E08093A6098AEF882E80E2982EE3
S1130DE098E4692E91E2792EF4018FEF81936E16C7
S1130DF07F06E1F710924821C5E881E00E943E0693
S1130E00C150D9F7832D0E94AB06842D0E94AB06F6
S1130E10852D0E94AB068D2D0E94AB06812F0E946A
S1130E20AB068D2F0E94AB068E2D0E94AB068F2D34
S1130E300E94AB06802F0E94AB068A2D0E94AB064F
S1130E408B2D0E94AB068C2D0E94AB060FB6F89436
S1130E500F921092F92080E48093050620E4F401B7
S1130E6091914F018091A10985FFFCCF2093A109A5
S1130E709093A0096814790491F78FEE90E001979C
S1130E80F1F700C0000080E4809306060F900FBEC7
S1130E90DF91CF911F910F91FF90EF90DF90CF9052
S1130EA0BF90AF909F908F907F906F905F904F9086
S1130EB03F90089580E2809341060895811104C013
S1130EC080E280934606089580E280934506089563
S1130ED08BEC8093520088E0809350008091510005
S1130EE083FFFCCF82EC8093550088E1809350000F
S1130EF08091510084FFFCCF88ED84BF84E080930F
S1130F00400080E0089590915121209150218091DA
S1130F10A40484FD22C080914F21891768F0809138
S1130F204E21821718F183E08093A30481E080931B
S1130F304C2110924D21089580914F21E09154212C
S1130F40F0915521E80FF11D80818093A7048091D1
S1130F504F218F5F80934F21089583E08093A304F2
S1130F6085E080934C2110924D2108958091562163
S1130F7081608093A604089580914E218032F8F414
S1130F808091A70490914E21E0915221F091532138
S1130F90E90FF11D808380914E218F5F80934E2154
S1130FA09091502180914E218917B8F087E0809369
S1130FB0A30481E080934C2110924D21089583E095
S1130FC08093A30482E080934C2110924D21909150
S1130FD0502180914E21891748F782E08093A30421
S1130FE008951F920F920FB60F9211240BB60F9211
S1130FF02F933F934F935F936F937F938F939F931D
S1131000AF93BF93EF93FF93CF93DF931F92CDB72B
S1131010DEB719828091A404982F9C70E1F486FDB8
S113102044C087FD45C086E080934C2110924D2139
S113103080914D2181111FC0BE016F5F7F4F809150
S11310404A2190914B210E94B60E8981882399F000
S11310500E943F0B10C08091A40482FD22C093E043
S113106090934C2188608093A40410924D21809128
S11310704D21882309F30F90DF91CF91FF91EF91D8
S1131080BF91AF919F918F917F916F915F914F919C
S11310903F912F910F900BBE0F900FBE0F901F909A
S11310A0189594E090934C21DDCF0E948307DFCF05
S11310B00E94BC07DCCF1F920F920FB60F9211242F
S11310C00BB60F922F933F934F935F936F937F933E
S11310D08F939F93AF93BF93EF93FF93CF93DF933C
S11310E01F921F92CDB7DEB71982AE014F5F5F4FDB
S11310F0BE016E5F7F4F80911E2290911F220E943D
S11311007D118130D9F0898181110E943F0B0F90AC
S11311100F90DF91CF91FF91EF91BF91AF919F918C
S11311208F917F916F915F914F913F912F910F908C
S11311300BBE0F900FBE0F901F9018958A8180935D
S1131140A00AE1CF1F920F920FB60F9211240BB693
S11311500F922F933F934F935F936F937F938F934C
S11311609F93AF93BF93EF93FF93CF93DF931F921C
S11311701F92CDB7DEB719828091A00A8A8320E03E
S1131180AE014F5F5F4FBE016E5F7F4F80911C22A7
S113119090911D220E945B0E898181110E943F0B58
S11311A00F900F90DF91CF91FF91EF91BF91AF918D
S11311B09F918F917F916F915F914F913F912F916B
S11311C00F900BBE0F900FBE0F901F9018950F93AA
S11311D01F93CF93DF93EC010E947E1580915721DA
S11311E0811121C0E0912422F0912522CF010196A2
S11311F080935C2190935D2110925E2110925F2177
S11312008FEF9FE380935A2190935B211092582192
S1131210109259218383948388E591E28183928398
S113122081E080935721209709F464C0AE014C5F9C
S11312305F4F2396CE3FDF4308F05CC0E0915C2112
S1131240F0915D21ACE5B1E206C080819181009707
S113125039F0DF01FC012281338124173507A8F31B
S1131260C1E2E835FC0709F445C0CD91DC91119742
S11312708E010C5F1F4F808191818D939C93C901D6
S1131280841B950B8930910500F1BF01640F751F14
S1131290DB0112968D939C9313974283538312968A
S11312A02D913C911397ACE5B1E201C0DF01ED91C2
S11312B0FC9111978281938182179307B8F3EB0114
S11312C0E883F9836D937C939A0180910620909131
S11312D00720821B930B80930620909307200E9483
S11312E068160115110541F0C801DF91CF911F91D6
S11312F00F9108950E9468160E94A51900E010E05D
S1131300C801DF91CF911F910F910895CF93DF937F
S1131310009721F1EC0124970E947E154A815B819C
S1131320ACE5B1E201C0DF01ED91FC91119722819E
S1131330338124173507B8F3E883F983CD93DC931D
S11313408091062090910720480F591F4093062052
S113135050930720DF91CF910C946816DF91CF91C1
S11313600895FC010396818392832FEF3FEF23833B
S11313703483858396838783908710820895FC0144
S1131380108611860895CF93DF939C01FB01DC0145
S11313901196CD91DC911297C283D3838C819D8168
S11313A0848395838C819D81DC0112966D937C935B
S11313B013976C837D8320873187F90180818F5F48
S11313C08083DF91CF910895CF93DF93EB01488120
S11313D059814F3F2FEF520701F1DC01139601C0F1
S11313E0DF011296ED91FC91139720813181421710
S11313F05307B0F7EA83FB83C483D583AC83BD83EF
S11314001296CD93DC93139788879987FC012081EA
S11314102F5F2083DF91CF910895FC01A781B085D0
S11314201296ED91FC911397E5CFCF93DF93FC01D6
S1131430A085B1852281338184819581E9018C83E2
S11314409D8384819581EC012A833B8311962D91A0
S11314503C911297E217F30749F0108611868C919C
S113146081508C938C91DF91CF91089511968D9337
S11314709C931297F2CF31E1FC013083319722E241
S113148020833197A3E3A0833197608331977083DE
S11314903197108231971082319760E860833197D9
S11314A01082319762E06083319763E06083319703
S11314B064E06083319765E06083319766E0608320
S11314C0319767E06083319768E06083319769E022
S11314D06083319760E1608331973083319732E1E3
S11314E03083319733E13083319734E1308331975E
S11314F035E13083319736E13083319737E13083FA
S1131500319738E13083319739E13083319730E2D4
S11315103083319731E2308331972083319723E24E
S113152020833197408331975083319726E220837B
S1131530319727E22083319728E22083319729E2EB
S11315402083319720E32083319721E320838797F9
S11315500895E0E0F8E08FEF9FEF80A791A781E086
S1131560808390E491838683878380E09DE786A3CC
S113157097A3A091FE21B091FF21CD91CDBFDD9124
S1131580DEBFFF91EF91DF91CF91BF91AF919F911A
S11315908F917F916F915F914F913F912F911F9107
S11315A00F91FF90EF90DF90CF90BF90AF909F90FE
S11315B08F907F906F905F904F903F902F901F90EF
S11315C00F900FBE0F90089581E008950F920FB60B
S11315D0F8940F921F9211242F923F924F925F9290
S11315E06F927F928F929F92AF92BF92CF92DF922F
S11315F0EF92FF920F931F932F933F934F935F9319
S11316006F937F938F939F93AF93BF93CF93DF9306
S1131610EF93FF93A091FE21B091FF210DB60D929F
S11316200EB60D920E947217A091FE21B091FF2177
S1131630CD91CDBFDD91DEBFFF91EF91DF91CF91D1
S1131640BF91AF919F918F917F916F915F914F91D6
S11316503F912F911F910F91FF90EF90DF90CF90CA
S1131660BF90AF909F908F907F906F905F904F90BE
S11316703F902F901F900F900FBE0F900895809170
S11316802008909121088C599F4F809328089093AB
S113169029082091280830912908809126089091E2
S11316A027082817390770F0209126083091270859
S11316B08091280890912908821B930B8093280815
S11316C09093290808950F920FB6F8940F921F92E1
S11316D011242F923F924F925F926F927F928F923A
S11316E09F92AF92BF92CF92DF92EF92FF920F93AD
S11316F01F932F933F934F935F936F937F938F9396
S11317009F93AF93BF93CF93DF93EF93FF93A091F6
S1131710FE21B091FF210DB60D920EB60D922091CF
S11317202608309127088091202290912122A091AF
S11317302222B0912322820F931FA11DB11D8093F9
S1131740202290932122A0932222B09323220E944C
S11317508E150E947217A091FE21B091FF21CD91A8
S1131760CDBFDD91DEBFFF91EF91DF91CF91BF91AE
S1131770AF919F918F917F916F915F914F913F9125
S11317802F911F910F91FF90EF90DF90CF90BF901A
S1131790AF909F908F907F906F905F904F903F900D
S11317A02F901F900F900FBE0F90189508950F92D1
S11317B00FB6F8940F921F9211242F923F924F92DA
S11317C05F926F927F928F929F92AF92BF92CF92CD
S11317D0DF92EF92FF920F931F932F933F934F93B8
S11317E05F936F937F938F939F93AF93BF93CF93A5
S11317F0DF93EF93FF93A091FE21B091FF210DB6EB
S11318000D920EB60D928FEF9FEF80932808909360
S113181029080E947217A091FE21B091FF21CD9159
S1131820CDBFDD91DEBFFF91EF91DF91CF91BF91ED
S1131830AF919F918F917F916F915F914F913F9164
S11318402F911F910F91FF90EF90DF90CF90BF9059
S1131850AF909F908F907F906F905F904F903F904C
S11318602F901F900F900FBE0F9018950F931F93FA
S1131870CF93DF93EC01042F1A8D4C8D41110DC0D1
S113188088819981892B09F443C01F5F80E01A8FF6
S1131890DF91CF911F910F91089550E0011115C070
S11318A08A819B810E94AC252C8D8A819B81820F29
S11318B0911D8A839B832C813D818217930728F392
S11318C0888199818A839B83E0CF8E819F810E9446
S11318D0AC258C8D90E09195819591092E813F8165
S11318E0280F391F2E833F834881598124173507D8
S11318F030F42C813D81820F931F8E839F830230AD
S113190021F6112311F080E0C2CF11E080E0BFCFB7
S11319108C819D810E94CC181C821D821F5FB7CFD1
S1131920FC01CB01448D442391F050E06681778122
S1131930640F751F6683778324813581621773076B
S113194020F060817181668377830C94AC250895BF
S1131950EF92FF920F931F93CF938C010FB6F894DD
S11319600F92FC01C68D1C16C4F4FC0181898823E6
S1131970A1F07801F1E1EF0EF11C06C0C15069F04D
S1131980F8018189882349F0C7010E949C178823A4
S1131990A9F30E945518C15099F78FEFF801868F6B
S11319A00F900FBE0FB6F8940F92C58D1C16C4F499
S11319B0F80180858823A1F07801F8E0EF0EF11C8E
S11319C006C0C15069F0F8018085882349F0C70139
S11319D00E949C178823A9F30E945518C15099F7B7
S11319E08FEFF801858F0F900FBECF911F910F914C
S11319F0FF90EF9008951F93CF93DF93EC01162F80
S1131A00892B09F43EC00FB6F8940F92488159818E
S1131A108B8D6C8D9A01869F200D311D11242C8392
S1131A203D831A8E4A835B8390E00197689F9001FF
S1131A30699F300D1124CA01820F931F8E839F83E7
S1131A408FEF8D8F8E8F111113C08885811107C080
S1131A500F900FBE81E0DF91CF911F910895CE01C9
S1131A6008960E949C17882399F30E94E60AF0CFF7
S1131A70CE0108960E94B109CE0141960E94B10997
S1131A80E7CF63E071E087E290E20E94EE19BBCFFA
S1131A90FF920F931F93CF93DF93182F062FF42EEB
S1131AA0882399F10023D1F0109FC001112481965D
S1131AB00E94E708EC01009751F08196888399838E
S1131AC01B8F0C8F61E0CE010E94FB0CF8A2CE01AB
S1131AD0DF91CF911F910F91FF90089581E290E0E3
S1131AE00E94E708EC01892B91F3C883D9831B8FEB
S1131AF00C8F61E0CE010E94FB0CF8A2CE01DF91B5
S1131B00CF911F910F91FF90089566E771E087E2EE
S1131B1090E20E94EE19C6CFBF92CF92DF92EF926D
S1131B20FF920F931F93CF93DF93CDB7DEB7259723
S1131B30CDBFDEBF8C016B014C835D83B22E892B3C
S1131B4009F4B2C0C114D10409F4A2C0F2E0BF1672
S1131B5009F47DC0F801838D20E07801F8E0EF0EF0
S1131B60F11C10C06C817D81C7010E947C17C801E3
S1131B700E94A80C0E946816882309F44AC0F80140
S1131B80838D21E00FB6F8940F92F801928D981787
S1131B9008F442C0F2E0BF1609F43EC08C819D8176
S1131BA0892B09F460C0222359F10F900FBE0E94C3
S1131BB07E150FB6F8940F92F801858D8F3F39F199
S1131BC0F801868D8F3F09F10F900FBEBE016C5F47
S1131BD07F4FCE0101960E94FE17811148C00FB6B7
S1131BE0F8940F92F801928D0F900FBE838D981781
S1131BF009F4B8CFC8010E94A80C0E946816BFCF90
S1131C00CE0101960E94F317D0CF168EDDCF158E2C
S1131C10D7CF0E94E60AB3CF4B2DB601C8010E946C
S1131C20360CF801918991112CC0811127C00F90B5
S1131C300FBE81E02596CDBFDEBFDF91CF911F910E
S1131C400F91FF90EF90DF90CF90BF900895F8012F
S1131C50838D813009F480CF63EF72E087E290E2F4
S1131C600E94EE1977CF0F900FBE80E0E3CFC8013A
S1131C700E94A80C0E94681680E0DCCF0E94E60A4D
S1131C80D6CFC80141960E949C17882381F2F6CFD3
S1131C90F801848D882309F459CF62EF72E087E25A
S1131CA090E20E94EE1952CF61EF72E087E290E277
S1131CB00E94EE1947CFCF92DF92EF92FF920F93DB
S1131CC01F93CF93DF93EC018B016A01F22E892BD2
S1131CD009F445C001151105C1F182E0F81671F04F
S1131CE09A8D8B8D9817A0F080E0DF91CF911F9192
S1131CF00F91FF90EF90DF90CF9008958B8D8130FE
S1131D0031F065EC73E087E290E20E94EE198A8D6F
S1131D10EE8C4F2DB801CE010E94360CEFEFEE167B
S1131D2021F0E394EE8E81E0E0CF89898823D9F312
S1131D30CE0141960E949C178823A9F3C114D104B3
S1131D4091F381E0F6018083D0CF8C8D882329F232
S1131D5064EC73E087E290E20E94EE19BECF63EC7C
S1131D6073E087E290E20E94EE19B4CF0F931F93C1
S1131D70CF93DF93EC018B01892B09F443C08C8D45
S1131D8081111BC088819981892B09F18A8D9B8DD2
S1131D90891768F49E8D8F5F8A8F9F3F19F19F5F2B
S1131DA09E8F81E0DF91CF911F910F91089580E084
S1131DB0DF91CF911F910F91089564E674E087E25B
S1131DC090E20E94EE1988819981892BF9F68C8121
S1131DD09D81892BD9F269E674E087E290E20E9442
S1131DE0EE19D4CF89898823E1F2CE0141960E946D
S1131DF09C178823B1F20115110599F281E0F801CD
S1131E008083D0CF60E674E087E290E20E94EE190E
S1131E10B6CFAF92BF92CF92DF92FF920F931F93F0
S1131E20CF93DF93CDB7DEB72597CDBFDEBF8C014F
S1131E305B014C835D83892B09F4A1C0A114B10417
S1131E4009F491C020E06801F1E1CF0ED11C0FB676
S1131E50F8940F92F801F28CF1106AC08C819D8184
S1131E60892B09F473C0222309F459C00F900FBEC3
S1131E700E947E150FB6F8940F92F801858D8F3F5E
S1131E8009F454C0F801868D8F3F09F44DC00F90BA
S1131E900FBEBE016C5F7F4FCE0101960E94FE17FC
S1131EA0811122C00FB6F8940F92F801828D0F9021
S1131EB00FBE811112C06C817D81C6010E947C1706
S1131EC0C8010E94A80C0E946816882311F021E022
S1131ED0BECF0E94E60A21E0BACFC8010E94A80C36
S1131EE00E94681621E0B3CFC8010E94A80C0E948A
S1131EF068160FB6F8940F92F801828D0F900FBEFA
S1131F008111E5CF2596CDBFDEBFDF91CF911F9123
S1131F100F91FF90DF90CF90BF90AF900895CE01C6
S1131F2001960E94F317A2CF168EB1CF158EAACFB9
S1131F30B501C8010E94900CFA94F801F28E8085D4
S1131F40811108C00F900FBE81E0DCCF0F900FBE4F
S1131F5080E0D8CFC80108960E949C17882391F38B
S1131F600E94E60AEFCFF801848D882309F46ACF32
S1131F7064E075E087E290E20E94EE1963CF60E0CE
S1131F8075E087E290E20E94EE1958CFDF92EF925B
S1131F90FF920F931F93CF93DF93CDB7DEB72597AF
S1131FA0CDBFDEBF8C016C837D83892B09F4D0C047
S1131FB0D8015C968C918111BBC0D12C20E07801B2
S1131FC0B1E1EB0EF11C0FB6F8940F92F801828D7B
S1131FD0811189C08C819D81892B09F49DC02223A4
S1131FE009F45FC00F900FBE0E947E150FB6F894DF
S1131FF00F92D8015D968C915D978F3F09F456C07E
S1132000F801868D8F3F09F458C00F900FBEBE01B2
S11320106C5F7F4FCE0101960E94FE17811123C091
S11320200FB6F8940F92D8015A968C915A970F9044
S11320300FBE811144C0F80180819181892B09F47C
S113204045C06C817D81C7010E947C17C8010E9434
S1132050A80C0E946816882311F021E0B4CF0E94D6
S1132060E60A21E0B0CFC8010E94A80C0E946816BD
S11320700FB6F8940F92F801828D0F900FBE811164
S1132080ECCFDD2009F472C00FB6F8940F92818969
S1132090811165C060E0F801848195810E94231953
S11320A043C0CE0101960E94F3179CCF5D961C920B
S11320B0F801868D8F3F09F0A8CF168EA6CFC801F0
S11320C00E94A80C0E94681621E07DCF0FB6F894F8
S11320D00F9214968D919C9115970E945918D82EA1
S11320E00F900FBEAECF8150828F80819181892B5A
S11320F009F43EC0F8018085811121C00F900FBE04
S113210081E02596CDBFDEBFDF91CF911F910F9166
S1132110FF90EF90DF900895DD2031F061EE75E0DF
S113212087E290E20E94EE190F900FBE80E0E9CFA3
S113213065E975E087E290E20E94EE193ECFC8019E
S113214008960E949C178823C9F20E94E60AD6CFFB
S113215061E975E087E290E20E94EE1929CF0688D2
S1132160F789E02D80816AE0681B95CF80E0C9CFB4
S11321700E949219D80114968D939C931597BACF07
S1132180CF92DF92EF92FF920F931F93CF93DF933F
S1132190CDB7DEB72597CDBFDEBF8C016B014C8375
S11321A05D83892B09F4A2C0C114D10409F492C03F
S11321B020E07801F1E1EF0EF11C0FB6F8940F92D4
S11321C0F801828D811169C08C819D81892B09F46C
S11321D074C0222309F458C00F900FBE0E947E15CC
S11321E00FB6F8940F92F801858D8F3F09F453C010
S11321F0F801868D8F3F09F44CC00F900FBEBE01CD
S11322006C5F7F4FCE0101960E94FE17811122C0A0
S11322100FB6F8940F92F801828D0F900FBE8111C2
S113222012C06C817D81C7010E947C17C8010E9485
S1132230A80C0E946816882311F021E0BECF0E94EA
S1132240E60A21E0BACFC8010E94A80C0E946816D1
S113225021E0B3CFC8010E94A80C0E9468160FB6F3
S1132260F8940F92F801828D0F900FBE8111E5CF83
S11322702596CDBFDEBFDF91CF911F910F91FF90C7
S1132280EF90DF90CF900895CE0101960E94F3174E
S1132290A3CF168EB2CF158EABCFE680F780B601F2
S11322A0C8010E94900CF801E682F78281898111AD
S11322B008C00F900FBE81E0DBCF0F900FBE80E00F
S11322C0D7CFC80141960E949C17882391F30E949E
S11322D0E60AEFCFF801848D882309F469CF6CE610
S11322E076E087E290E20E94EE1962CF68E676E03B
S11322F087E290E20E94EE1957CFCF92DF92EF92DD
S1132300FF920F931F93CF93DF93EC017B016A013C
S1132310892BB9F1E114F104D1F01A8D11110AC01D
S113232080E0DF91CF911F910F91FF90EF90DF90AC
S1132330CF9008950D8DB701CE010E94900C1150DD
S11323401A8F0F3F71F00F5F0D8F81E0EACF8C8DF4
S1132350882319F36CEF76E087E290E20E94EE198D
S1132360DCCF8885882389F3CE0108960E949C17C8
S1132370882359F3C114D10441F381E0F601808329
S1132380D0CF6BEF76E087E290E20E94EE19C2CFE5
S113239020C00FB6F8940F92E0918121F091822130
S11323A0C681D781CE0102960E94150A80917121BF
S11323B081508093712180917B21815080937B2176
S11323C00F900FBE8F89988D0E948609CE010E94BE
S11323D0860980917B218111DCCF8091A4218230F8
S11323E010F00E94E60A0E94A419F3CFE091902114
S11323F0F09191210580F681E02D0680F781E02D92
S11324008281938180936721909368210895CF936B
S1132410DF93EC01892B99F08A859B858257914241
S113242021F080E0DF91CF9108952C893D8981E2EC
S113243025383807B1F381E0232B99F7F3CF62EF06
S113244076E08BE390E20E94EE19E6CFFF920F93C1
S11324501F93CF93DF93EC01F62E00916F2110911F
S113246070218091FE219091FF2102960E94150A0D
S1132470CF3F8FEFD807A9F1C00FD11FE091FE2104
S1132480F091FF21C283D3836091FE217091FF21DB
S1132490C017D107C8F080919021909191216E5F6F
S11324A07F4F0E94E4098091672190916821C817A9
S11324B0D90720F4C0936721D0936821DF91CF918D
S11324C01F910F91FF90089580918E2190918F21FB
S11324D06E5F7F4FDF91CF911F910F91FF900C940E
S11324E0E409FF2049F26091FE217091FF216E5FA3
S11324F07F4F82E791E2DF91CF911F910F91FF907F
S11325000C94C3090F931F93CF9310926B212091C6
S11325102008309121088091202290912122A091BD
S11325202222B0912322820F931FA11DB11D00917D
S1132530602110916121209162213091632108175B
S113254019072A073B07A0F4E091FE21F091FF212F
S113255047A150A561A572A5401B510B620B730BDB
S1132560480F591F6A1F7B1F47A350A761A772A773
S11325708093602190936121A0936221B0936321A1
S1132580E091FE21F091FF210788F08DE02D8081FC
S11325909181A281B381853A954AA54AB54A09F445
S11325A04CC06091FE217091FF218091FE21909199
S11325B0FF21675E7F4F0E94C419C0916E218C2F4A
S11325C090E09C01220F331F220F331F220F331F71
S11325D0F901E80FF91FEC55FE4D408141110CC083
S11325E0CC2311F0C150EBCF6CE87BE08BE390E29D
S11325F00E94EE19C150E3CF820F931FDC01AC554A
S1132600BE4D1196ED91FC9112970280F381E02D5D
S11326101196ED93FC93129789559E4DE817F9078F
S113262059F1868197818093FE219093FF21C09375
S11326306E21CF911F910F91089584819581A68178
S1132640B781853A954AA54AB54A09F0AACF80854B
S11326509185A285B385853A954AA54AB54A09F07C
S1132660A0CF84859585A685B785853A954AA54AE0
S1132670B54A09F096CFA1CF0280F381E02D1196DF
S1132680ED93FC931297CDCF5F926F927F928F92CE
S11326909F92AF92BF92CF92DF92EF92FF920F93ED
S11326A01F93CF93DF934C01EB015A013901502E54
S11326B0CA010E94E7088C01892B09F4DEC080E37B
S11326C090E00E94E7086C01009709F4D3C0DC0194
S11326D057960D931C935897209709F4D0C0C801BE
S11326E0A50165EA70E00E94B525F1E0AF1AB108D2
S11326F0D60157968D919C915897A80EB91EF60154
S113270079969E01285F3F4FDE01899181938C91D8
S1132710882319F0C217D307B9F7F60110A2052DC3
S11327200A3008F0A1C0D60156960C93569793969A
S11327300C93939794961C92E6012296CE010E94E4
S1132740BF09C6010C960E94BF09F601C086D18656
S11327508AE090E0801B910984879587C28AD38A96
S113276015A216A217A210A611A612A613A614A6A5
S113277015A616A617A6A301B401C5010E943B0A1B
S1132780D6018D939C93E114F10419F0F701C082F2
S1132790D1820FB6F8940F92809171218F5F80934C
S11327A071218091FE219091FF21892B99F08091D4
S11327B06D21811118C0E091FE21F091FF21D60115
S11327C056968C919689891788F0C092FE21D092F2
S11327D0FF210CC0C092FE21D092FF218091712173
S11327E0813009F456C0D60156968C919091692196
S11327F09F5F90936921F60191A390916E219817A0
S113280080F190E09C01220F331F220F331F220F0F
S1132810331F820F931FBE018C559E4D0E94C30926
S11328200F900FBE80916D21882351F0E091FE211D
S1132830F091FF219689D60156968C919817B0F0A5
S113284081E0DF91CF911F910F91FF90EF90DF9086
S1132850CF90BF90AF909F908F907F906F905F903C
S1132860089580936E21CDCF09E05DCF0E94E60AE2
S113287081E0E7CFC8010E9486098FEFE2CF60E6CE
S113288073E08BE390E20E94EE19F6018789908D44
S113289027CF04EA11E25EEFE52E51E2F52EC801DE
S11328A00E94B109075F1F4FE016F106C1F78BE9DB
S11328B091E20E94B10982E991E20E94B10985E89E
S11328C091E20E94B1098CE791E20E94B10982E78A
S11328D091E20E94B1098BE991E280939021909357
S11328E0912182E991E280938E2190938F21F601C8
S11328F086897CCF0F931F93CF93DF93EC010FB6A0
S1132900F8940F92892B09F462C08E010E5F1F4F59
S1132910C8010E94150A8C899D89892B21F0CE015A
S11329200C960E94150AB80182E791E20E94C3093D
S11329308FA5813021F10F900FBE80916D218823E6
S113294091F00FB6F8940F92E0919021F0919121BB
S1132950808181112BC08FEF9FEF8093672190932B
S113296068210F900FBE8091FE219091FF21C8171E
S1132970D90739F0DF91CF911F910F9108951FA6C8
S1132980DACF80916D218823A1F08091642188237E
S113299031F068EC76E08BE390E20E94EE190E943D
S11329A0E60ADF91CF911F910F9108950E94F611CD
S11329B0D8CF9091722180917121981799F08091CC
S11329C06421882349F081E080936B21D3CFC091A7
S11329D0FE21D091FF2199CFDF91CF911F910F91CB
S11329E00C9482121092FE211092FF21C3CF0F93F8
S11329F01F93CF93DF93EC01892B09F43DC08091A1
S1132A00FE219091FF21C817D90751F00FB6F89411
S1132A100F92CE010E940712811107C00F900FBEC2
S1132A20DF91CF911F910F9108958E010E5F1F4F7B
S1132A30C8010E94150A8E8990916E21981710F48E
S1132A4080936E2190E09C01220F331F220F331FCD
S1132A50220F331F820F931FB8018C559E4D0E9485
S1132A60C309E091FE21F091FF219E898689981780
S1132A70A8F20E94E60AD2CF6CE177E08BE390E201
S1132A800E94EE198091FE219091FF21C9CFEF920F
S1132A90FF920F9385E6E82E81E2F82E00E020E015
S1132AA030E040E051E06FE470E288EC91E10E9494
S1132AB04413813079F08F3F21F00F91FF90EF9014
S1132AC0089567E078E08BE390E20F91FF90EF9038
S1132AD00C94EE19F8942FEF3FEF20936721309375
S1132AE0682180936D2110926F21109270210E94B1
S1132AF0D60B0F91FF90EF900C94A90A809164215A
S1132B008F5F8093642108950FB6F8940F9280919B
S1132B106F21909170210F900FBE0895DF92EF9274
S1132B20FF920F931F93CF93DF93809164218111C0
S1132B30B9C0E0906F21F09070218FEFE81AF80A85
S1132B40E0926F21F0927021E114F10449F5E091D3
S1132B509021F091912180818111ABC080919021CD
S1132B609091912120918E2130918F212093902159
S1132B703093912180938E2190938F2180916A21AB
S1132B808F5F80936A21E0919021F091912180815F
S1132B90811196C08FEF9FEF8093672190936821F6
S1132BA08091672190916821D12CE816F90608F4E8
S1132BB053C0E0919021F09191218081882309F400
S1132BC045C0E0919021F09191210580F681E02D9E
S1132BD0C681D7818A819B81E816F90608F473C0FF
S1132BE08E010E5F1F4FC8010E94150A8C899D89B2
S1132BF0892B21F0CE010C960E94150A8E899091A2
S1132C006E21981710F480936E2190E09C01220F9E
S1132C10331F220F331F220F331F820F931FB8015C
S1132C208C559E4D0E94C309E091FE21F091FF2135
S1132C309E898689981708F4BCCFDD24D394E0914B
S1132C409021F091912180818111BBCF8FEF9FEF73
S1132C508093672190936821E091FE21F091FF21F8
S1132C60868990E0FC01EE0FFF1FEE0FFF1FEE0FB1
S1132C70FF1F8E0F9F1FFC01EC55FE4D808182309B
S1132C8010F0DD24D39480916B21882311F0DD248E
S1132C90D3948D2DDF91CF911F910F91FF90EF90E1
S1132CA0DF90089580916C218F5F80936C21D12CEB
S1132CB0EACF66E67AE08BE390E20E94EE194ECF0B
S1132CC00E94F6116DCF8093672190936821C4CF41
S1132CD0FF920F931F93CF93DF93809164218823F6
S1132CE009F477C00FB6F8940F9280916421815053
S1132CF08093642180916421811162C0809171214B
S1132D00882309F45DC0C0E0D0E0FF24F3948091EF
S1132D1085218823A1F1E0918A21F0918B21C6813C
S1132D20D781CE010C960E94150A8E010E5F1F4FAB
S1132D30C8010E94150A8E8990916E21981710F48B
S1132D4080936E2190E09C01220F331F220F331FCA
S1132D50220F331F820F931FB8018C559E4D0E9482
S1132D60C309E091FE21F091FF219E89868998177D
S1132D7070F2F0926B21809185218111CCCFCD2B03
S1132D8069F0E0919021F0919121808181112CC012
S1132D908FEF9FEF8093672190936821C0916C21FE
S1132DA0CC2351F0D1E00E948E158111D0936B2178
S1132DB0C150C9F710926C2180916B21811110C010
S1132DC080E00F900FBEDF91CF911F910F91FF9084
S1132DD008956CE678E08BE390E20E94EE1982CFCE
S1132DE00E94E60A81E0EDCF0E94F611D7CF0F933F
S1132DF01F93CF93DF938C01EB01892B09F446C019
S1132E002097E9F180916421811132C0809164217D
S1132E108F5F8093642140916F2150917021F8015C
S1132E2020813181CE01820F931F4217530788F40A
S1132E308217930788F0F801808391830E946816B3
S1132E40811102C00E94E60ADF91CF911F910F9178
S1132E5008958217930718F04817590760F7F80187
S1132E608083918360E0841B950B0E942612E6CF39
S1132E706CEC74E08BE390E20E94EE19C7CF6BEC2C
S1132E8074E08BE390E20E94EE19BCCF6AEC74E02C
S1132E908BE390E20E94EE19B3CFCF93DF93EC0162
S1132EA0892B29F40E94E60ADF91CF91089580913D
S1132EB06421811110C0809164218F5F809364210B
S1132EC060E0CE010E9426120E946816882351F306
S1132ED0DF91CF91089560E275E08BE390E20E9468
S1132EE0EE19E9CF80916421811102C00C94821201
S1132EF081E080936B2108950F931F93CF93DF9309
S1132F00EC018B01892B89F06091FE217091FF21E6
S1132F10645F7F4FCE010E94E40961E0C801DF9144
S1132F20CF911F910F910C94261263EA7BE08BE3FF
S1132F3090E20E94EE19E8CF0F931F93CF93DF9393
S1132F40DC011596ED91FC911697C681D7812097E7
S1132F5009F442C08E01045F1F4FC8010E94150A84
S1132F6080916421811129C00A501109C8010E946D
S1132F70150A8E8990916E21981728F190E09C0192
S1132F80220F331F220F331F220F331F820F931F71
S1132F90B8018C559E4D0E94C309E091FE21F09129
S1132FA0FF219E898689891788F481E080936B21AB
S1132FB0DF91CF911F910F910895B80185E891E2B7
S1132FC00E94C309EACF80936E21D8CF80E0DF91BD
S1132FD0CF911F910F9108956EEF7BE08BE390E208
S1132FE00E94EE19B7CF20916A21FC012083209121
S1132FF06F21309170212183328308950F931F93A1
S1133000CF93DF93EC018B01892B09F440C00115A8
S1133010110509F443C00FB6F8940F9280916F2103
S113302090917021F801208131812F3FFFEF3F07FC
S113303061F149815A8160916A217881761719F08A
S11330408417950780F4841B950B8217930768F007
S1133050F8011082118281E00F900FBEDF91CF91B1
S11330601F910F91089581E0F7CF281B390BF801C8
S11330702083318380916A21888380916F2190918C
S1133080702189839A8380E0E7CF80E0E5CF69E609
S11330907CE08BE390E20E94EE19B9CF6AE67CE013
S11330A08BE390E20E94EE19B6CF81E080936B210E
S11330B008950F931F93CF93DF93FC01892B09F499
S11330C041C02689A091FE21B091FF2156968C9192
S11330D0281770F58485958597FD0CC0A091FE2175
S11330E0B091FF2156963C918AE090E0831B9109B0
S11330F08487958730E0C901880F991F880F991F2D
S1133100880F991F280F391F2C553E4D82859385B2
S113311082179307E9F0A091FE21B091FF21569602
S11331208C91868B81E0DF91CF911F910F9108954F
S1133130A091FE21B091FF2181E023A156969C919C
S1133140291788F380E0DF91CF911F910F910895A3
S11331508F01EF012296CE010E94150AE091FE2113
S1133160F091FF218689F801868B90916E21981742
S113317010F480936E2190E09C01220F331F220FE4
S1133180331F220F331F820F931FBE018C559E4D98
S11331900E94C30981E0C7CF0F931F93CF93DF939E
S11331A00097C9F0EC018091FE219091FF21C8178E
S11331B0D90731F06EE77FE08BE390E20E94EE19CD
S11331C08CA18823C1F181508CA32E899BA129173E
S11331D011F0882331F080E0DF91CF911F910F919E
S11331E008958E010E5F1F4FC8010E94150A2BA17E
S11331F02E8B822F90E04AE050E0481B590B4C87FD
S11332005D8730916E21321710F420936E219C015A
S1133210220F331F220F331F220F331F820F931FDE
S1133220B8018C559E4D0E94C30981E0DF91CF9176
S11332301F910F9108956FE77FE08BE390E20E9466
S1133240EE198CA1C0CF0F931F93CF93DF930097F8
S113325079F0162FEC018CA1882309F454C00BA13A
S1133260011758F08E89801719F09CA1913039F01C
S1133270DF91CF911F910F910895012FF3CF2091EA
S1133280FE213091FF21C217D30709F443C00E8BEE
S11332902C853D8537FD06C02AE030E0201B31092E
S11332A02C873D8790E09C01220F331F220F331F90
S11332B0220F331F820F931F8C559E4D2A853B8509
S11332C028173907A9F68E010E5F1F4FC8010E9407
S11332D0150A8E8990916E21981710F480936E21AF
S11332E090E09C01220F331F220F331F220F331F44
S11332F0820F931FB8018C559E4DDF91CF911F9182
S11333000F910C94C3096DEC7FE08BE390E20E9473
S1133310EE19A5CF68EE7FE08BE390E20E94EE19F0
S11333208E89B5CF8091FE219091FF21892B39F0B0
S1133330E091FE21F091FF2184A18F5F84A380910D
S1133340FE219091FF2108950895F8948EE790E26C
S11333500E94B50280E880930106809305062FEF52
S113336033EC99E0215030409040E1F700C0000078
S1133370809306062FEF33EC99E0215030409040C3
S1133380E1F700C00000E9CFEB01F89480E88093F6
S1133390010680EA90E20E94B5026AE070E0CE0184
S11333A00E94D4028BE790E20E94B50280E88093E9
S11333B005062FEF33ED90E3215030409040E1F7C4
S11333C000C00000809306062FEF33ED90E32150F8
S11333D030409040E1F700C00000E9CF8C01EB01E0
S11333E0F89480E88093010688EB90E20E94B5028D
S11333F064E670E0C8010E94D40288EC90E20E9466
S1133400B502CE010E94F9028BE790E20E94B50258
S113341080E8809305062FEF33EC99E0215030408B
S11334209040E1F700C00000809306062FEF33EDD3
S113343090E3215030409040E1F700C00000E9CF14
S11334400E94680780E090E40E94A82380932422CD
S113345090932522892BA9F087E08093A200789489
S11334600E94111D809148008061809348008091E2
S113347048008160809348000E94471580E090E0F6
S11334800895FFCFCF93DF93CDB7DEB72C97CDBF91
S1133490DEBF0E9484158093002290930122198636
S11334A01A861B861C861D821E821F82188677C080
S11334B020E030E0A901C701B6010E94001E87FF89
S11334C00AC020E030E84BEB54E4C701B6010E9487
S11334D0931D6B017C0120E030EF4FE755ECC701F1
S11334E0B6010E94001E87FFB6C001E010EFC501BF
S11334F0B4010E94AF1E9B01AC0169857A858B855E
S11335009C850E94931D20E030E046E953E40E942C
S1133510641F6B017C0120E030E0A9010E945F1F61
S1133520181654F420E030E84BEB54E4C701B6011C
S11335300E94941D6B017C0120E030EF4FE755E4BD
S1133540C701B6010E945F1F18160CF48AC020E060
S113355030E0A901C701B6010E94001E87FF0AC01E
S113356020E030E84BEB54E4C701B6010E94931D00
S11335706B017C0120E030EF4FE755ECC701B60149
S11335800E94001E87FF74C061E070EFC8010E94B2
S113359088036AE070E080E092E20E94F7160E94DD
S11335A0F3036B017C0160E070E08091062290914E
S11335B007220E94C60F2601DD0C660877088130B9
S11335C009F490C04701FF0CAA08BB0840E050E092
S11335D0BE016F5F7F4F80910422909105220E946B
S11335E0090F813009F449C0C301B2010E94AF1E22
S11335F09B01AC016D817E818F8198850E94931D12
S113360020E030E046E953E40E94641F6B017C0132
S113361020E030E0A9010E945F1F181654F420E056
S113362030E84BEB54E4C701B6010E94941D6B01D2
S11336307C0120E030EF4FE755E4C701B6010E945A
S11336405F1F18160CF034CFC12C90EFD92E9FE7D2
S1133650E92E95E4F92EC701B6010E94771E8B016D
S113366046CFC12C80EFD82E8FE7E82E85E4F82EC4
S1133670C701B6010E94771E89CF69817A81072E1E
S1133680000C880B990B0E94AF1E20E030E048EC40
S113369052E40E94051E9B01AC016D817E818F81E5
S11336A098850E94941D6D837E838F8398876B8198
S11336B07C81072E000C880B990B0E94AF1E20E022
S11336C030E048EC52E40E94051E9B01AC01698580
S11336D07A858B859C850E94941D69877A878B8760
S11336E09C8782CFC301B2010E94AF1E6D837E838B
S11336F08F8398874701FF0CAA08BB08C501B40152
S11337000E94AF1E69877A878B879C875FCF0E9450
S1133710300620E040E050E060E070E08091062256
S1133720909107220E948C0D0E94841580930022A0
S11337309093012280910222909103220C94F71419
S113374080910222909103220E947A1460E070E03A
S113375080E090E00C948803EF92FF920F930E9414
S1133760570382E0E82E82E2F82E03E020E030E006
S113377040E051E063ED70E282E49AE10E94441378
S11337800E94A01B40E064E081E00E94480D809309
S113379004229093052243E060E081E00E94480DFA
S11337A08093062290930722009751F020E040E096
S11337B050E060E070E00F91FF90EF900C948C0D5E
S11337C00F91FF90EF900895CF93DF9300D01F9255
S11337D0CDB7DEB789839A836B837C8320E04FEF78
S11337E05FEFBE016F5F7F4F8091042290910522AD
S11337F00E948C0D2496CDBFDEBFDF91CF9108953A
S1133800CF93DF9300D01F92CDB7DEB70E9484150B
S113381080930822909309224FEF5FEFBE016F5F00
S11338207F4F80910C2290910D220E94C0106B81D9
S11338307C8189819A810E94E41B6AE070E088E0BF
S113384092E20E94F716E8CFEF92FF920F938AE07C
S1133850E82E82E2F82E03E020E030E040E051E080
S11338606AED70E280E09CE10E94441380910A2298
S113387090910B220E947A1440E064E081E00E945F
S1133880480D80930C2290930D22EEE0F2E2108218
S113389011821282138222E040E050E0BF010F91B6
S11338A0FF90EF900C948C0D0E9484158093082255
S11338B09093092280910A2290910B220C94F71480
S11338C080910A2290910B220C947A14EEE0F2E299
S11338D0808391836283738322E040E050E0BF01E0
S11338E080910C2290910D220C948C0DCF93DF9338
S11338F01F92CDB7DEB74AC066246A9477247A94BF
S113390088248A94912C80FF07C090E8692E20E8CF
S1133910722E30E8832E912C84FF4BC022242A94EB
S1133920312C412C512C510162017101820193010E
S1133930A401B301C4010E94C5068AEF90E00E946D
S11339404D17298122FF3AC0AA24AA94BB24BA9411
S1133950C12CD12C6FEF7FEF80E090E023FF0CC0EF
S113396022242A9433243A94412C512C66246A94B8
S113397077247A94812C912C710182019301A40102
S11339800E94C5068AEF90E00E944D1740E050E087
S1133990BE016F5F7F4F80912622909127220E9463
S11339A0C010898181FDA8CF612C712C812C912CB0
S11339B0AACF212C312C412C512CB5CF51016201BD
S11339C0B301C401CBCFEF92FF920F93CF93DF9358
S11339D01F92CDB7DEB740E061E081E00E94480D60
S11339E08093262290932722198222E040E050E01F
S11339F0BE016F5F7F4F0E948C0DE12CF12C04E01F
S1133A0020E030E040E052E061EE70E286E79CE1C5
S1133A100E9444130F90DF91CF910F91FF90EF908C
S1133A200895EF92FF920F93E12CF12C03E020E034
S1133A3030E040E051E065EE70E28CE79DE10E94E9
S1133A4044130F91FF90EF900895E12CF12C00E0C6
S1133A5010E00CC0C2FD1DC0C1FD27C0C3FD31C0B4
S1133A60C0FD3BC0B701C8010E94661C8CE291E016
S1133A700E941902C82F84FFEDCF0E94871B0E9469
S1133A80541C38EEE32E33E0F32E08EE13E0C2FFAD
S1133A90E3CF0E94871B0E94541C28E1E22E2CEFE6
S1133AA0F22E08E11CEFC1FFD9CF0E94871B0E94B0
S1133AB0541C98EEE92E93E0F92E08E11CEFC3FFA5
S1133AC0CFCF0E94871B0E94541C88E1E82E8CEF04
S1133AD0F82E08EE13E0C0FFC5CF60E070E080E090
S1133AE090E00E94661C8CE291E00E944D170E94B7
S1133AF0601C0E94A01BB6CF81E00E945E070E945A
S1133B00E8010E945A070E94BF060E94570382E3FD
S1133B1090E00E944D170E94AC1B0E94241C0E943E
S1133B20E31C0E94251D5058BB27AA270E94AB1DE9
S1133B300C94251F0E94171F38F00E941E1F20F0AE
S1133B4039F49F3F19F426F40C94141F0EF4E095F5
S1133B50E7FB0C940E1FE92F0E94361F58F3BA1787
S1133B60620773078407950720F079F4A6F50C948F
S1133B70581F0EF4E0950B2EBA2FA02D0B01B9019E
S1133B8090010C01CA01A0011124FF27591B99F0CF
S1133B90593F50F4503E68F11A16F040A22F232FDB
S1133BA0342F4427585FF3CF469537952795A7952B
S1133BB0F0405395C9F77EF41F16BA0B620B730BD2
S1133BC0840BBAF09150A1F0FF0FBB1F661F771F43
S1133BD0881FC2F70EC0BA0F621F731F841F48F4F8
S1133BE0879577956795B795F7959E3F08F0B0CF81
S1133BF09395880F08F09927EE0F97958795089568
S1133C000E94EA1E08F481E008950E94191E0C9493
S1133C10251F0E941E1F58F00E94171F40F029F410
S1133C205F3F29F00C940E1F51110C94591F0C94F2
S1133C30141F0E94361F68F39923B1F3552391F39F
S1133C40951B550BBB27AA2762177307840738F007
S1133C509F5F5F4F220F331F441FAA1FA9F335D064
S1133C600E2E3AF0E0E832D091505040E695001C18
S1133C70CAF72BD0FE2F29D0660F771F881FBB1FD2
S1133C80261737074807AB07B0E809F0BB0B802DB0
S1133C90BF01FF2793585F4F3AF09E3F510578F0DC
S1133CA00C940E1F0C94591F5F3FE4F3983ED4F319
S1133CB0869577956795B795F7959F5FC9F7880FB0
S1133CC0911D9695879597F90895E1E0660F771F02
S1133CD0881FBB1F621773078407BA0720F0621B93
S1133CE0730B840BBA0BEE1F88F7E09508950E94BE
S1133CF07E1E6894B1110C94591F08950E943E1FB2
S1133D0088F09F5798F0B92F9927B751B0F0E1F098
S1133D10660F771F881F991F1AF0BA95C9F714C048
S1133D20B13091F00E94581FB1E008950C94581FCF
S1133D30672F782F8827B85F39F0B93FCCF3869581
S1133D4077956795B395D9F73EF4909580957095DE
S1133D5061957F4F8F4F9F4F0895E89409C097FB5B
S1133D603EF490958095709561957F4F8F4F9F4F4E
S1133D709923A9F0F92F96E9BB279395F695879592
S1133D8077956795B795F111F8CFFAF4BB0F11F455
S1133D9060FF1BC06F5F7F4F8F4F9F4F16C08823FC
S1133DA011F096E911C0772321F09EE8872F762F32
S1133DB005C0662371F096E8862F70E060E02AF073
S1133DC09A95660F771F881FDAF7880F969587955F
S1133DD097F90895990F0008550FAA0BE0E8FEEF34
S1133DE016161706E807F907C0F012161306E407BB
S1133DF0F50798F0621B730B840B950B39F40A26B4
S1133E0061F0232B242B252B21F408950A2609F491
S1133E10A140A6958FEF811D811D089597F99F6795
S1133E2080E870E060E008959FEF80EC089500243E
S1133E300A941616170618060906089500240A940B
S1133E4012161306140605060895092E0394000C91
S1133E5011F4882352F0BB0F40F4BF2B11F460FF20
S1133E6004C06F5F7F4F8F4F9F4F089557FD905849
S1133E70440F551F59F05F3F71F04795880F97FB2A
S1133E80991F61F09F3F79F08795089512161306E4
S1133E901406551FF2CF4695F1DF08C01616170613
S1133EA01806991FF1CF8695710561050894089548
S1133EB0E894BB2766277727CB0197F908950E94DA
S1133EC0EA1E08F48FEF08950E94771F0C94251FB3
S1133ED00E94171F38F00E941E1F20F0952311F036
S1133EE00C940E1F0C94141F11240C94591F0E943F
S1133EF0361F70F3959FC1F3950F50E0551F629FD5
S1133F00F001729FBB27F00DB11D639FAA27F00D2E
S1133F10B11DAA1F649F6627B00DA11D661F829F55
S1133F202227B00DA11D621F739FB00DA11D621F3A
S1133F30839FA00D611D221F749F3327A00D611D57
S1133F40231F849F600D211D822F762F6A2F112439
S1133F509F5750409AF0F1F088234AF0EE0FFF1F6C
S1133F60BB1F661F771F881F91505040A9F79E3FC3
S1133F70510580F00C940E1F0C94591F5F3FE4F31D
S1133F80983ED4F3869577956795B795F795E79519
S1133F909F5FC1F7FE2B880F911D9695879597F922
S1133FA008952F923F924F925F926F927F928F92D9
S1133FB09F92AF92BF92CF92DF92EF92FF920F93B4
S1133FC01F93CF93DF93CDB7DEB76097CDBFDEBF2E
S1133FD07C011B016A01FC0116821782838181FF27
S1133FE044C39E012F5F3F4F3901F7019381F101D3
S1133FF093FD859193FF81911F01882309F431C3B7
S1134000853239F493FD859193FF81911F018532A7
S113401039F4B70190E00E94C72556016501E5CF48
S113402010E0512C912CFFE1F915D8F08B3279F086
S113403038F4803279F08332A1F4F92DF0612EC086
S11340408D3261F0803369F4292D21602DC0392D22
S11340503260932E892D8460982E2AC0E92DE86061
S113406015C097FC2DC020ED280F2A3088F496FE49
S113407006C03AE0139F200D1124122F19C08AE0C4
S1134080589E200D1124522EE92DE0629E2E10C060
S11340908E3231F496FCE5C2F92DF0649F2E08C0EF
S11340A08C3621F4292D2068922E02C0883641F4E2
S11340B0F10193FD859193FF81911F018111B3CF8C
S11340C09BEB980F933020F4992D9061805E07C08C
S11340D09BE9980F933008F066C1992D9F7E96FF57
S11340E016E09F73992E853619F49064992E08C0B2
S11340F0863621F4392F3068932E02C011111150E5
S113410097FE07C01C3350F444244394410E27E027
S11341100BC0183038F027E017E005C027E09CE317
S1134120492E02C0212F412C560184E0A80EB11C57
S1134130F6016081718182819381042DA3010E9423
S1134140C9246C01F981FC87F0FF02C0F3FF06C0AB
S113415091FC06C092FE06C000E205C00DE203C059
S11341600BE201C000E08C858C7019F001115AC279
S11341709BC297FE10C04C0CFC85F4FF04C08A81DE
S1134180813309F44A94141474F528E0241578F55D
S113419088E0482E2CC096FC2AC0812F90E08C1514
S11341A09D059CF03CEFC3163FEFD30674F0892DB8
S11341B08068982E0AC0E2E0F0E0EC0FFD1FE10FEA
S11341C0F11D8081803319F411501111F4CF97FE41
S11341D00EC044244394410E812F90E0C816D906A2
S11341E02CF41C1904C04424439401C010E097FE2D
S11341F006C01C141D0434F4C601019605C085E0F4
S113420090E002C081E090E001110196112331F0A9
S1134210212F30E02F5F3F4F820F931F252D30E079
S11342208217930714F4581A01C0512C892D8970F0
S113423049F4552039F0B70180E290E00E94C72587
S11342405A94F7CF002329F0B701802F90E00E9401
S1134250C72593FC09C0552039F0B70180E390E0ED
S11342600E94C7255A94F7CF97FE4CC04601D7FE4B
S113427002C0812C912CC60188199909F301E80F19
S1134280F91FED87FE879601241931092F87388B92
S1134290012F10E01195019511093FEF8316930644
S11342A029F4B7018EE290E00E94C725C814D9040E
S11342B04CF08F8598898815990524F4ED85FE8541
S11342C0818101C080E3F1E08F1A91082D853E853C
S11342D02F5F3F4F2D873E87801691062CF0B70144
S11342E090E00E94C725D9CFC814D90441F49A811B
S11342F0963320F4953319F43C8534FF81E3B701F8
S113430090E04EC08A81813319F09C859F7E9C8702
S1134310B70190E00E94C725111105C094FC18C094
S113432085E690E017C0B7018EE290E00E94C725B1
S11343301E5F82E001E0080FF301E80FF11D8081A8
S1134340B70190E00E94C725802F0113F3CFE6CF79
S113435085E490E0B7010E94C725D7FC06C0C114CC
S1134360D10441F4EC85E4FF05C0D194C194D10893
S11343708DE201C08BE2B70190E00E94C72580E383
S11343802AE0C216D1042CF08F5FFAE0CF1AD108CC
S1134390F7CFB70190E00E94C725B701C601C096C8
S11343A00E94C72554C1833631F0833779F08335B1
S11343B009F056C020C0560132E0A30EB11CF6012C
S11343C08081898301E010E0630112C05601F2E0AC
S11343D0AF0EB11CF601C080D18096FE03C0612FE0
S11343E070E002C06FEF7FEFC6010E94BC258C0114
S11343F0F92DFF7714C0560122E0A20EB11CF6017C
S1134400C080D18096FE03C0612F70E002C06FEFC0
S11344107FEFC6010E94A1258C01F92DF0689F2E23
S1134420F3FD1AC0852D90E008171907A8F4B70109
S113443080E290E00E94C7255A94F4CFF60197FCDD
S1134440859197FE81916F01B70190E00E94C72585
S113445051105A94015011090115110579F7F7C04B
S1134460843611F0893661F5560197FE09C024E0BF
S1134470A20EB11CF60160817181828193810AC010
S1134480F2E0AF0EB11CF60160817181072E000CC1
S1134490880B990BF92DFF769F2E97FF09C09095F5
S11344A08095709561957F4F8F4F9F4FF0689F2E39
S11344B02AE030E0A3010E940326C82EC6183FC09C
S11344C0092D853721F40F7E2AE030E01DC0097FD5
S11344D08F3691F018F4883559F0C3C0803719F03D
S11344E0883711F0BEC0006104FF09C0046007C032
S11344F094FE08C0066006C028E030E005C020E154
S113450030E002C020E132E0560107FF09C084E038
S1134510A80EB11CF601608171818281938108C06B
S1134520F2E0AF0EB11CF6016081718180E090E091
S1134530A3010E940326C82EC6180F77902E96FE5C
S11345400BC0092D0E7FC11650F494FE0AC092FCD4
S113455008C0092D0E7E05C0DC2C092D03C0DC2CFF
S113456001C0D12E04FF0DC0FE01EC0DF11D8081B0
S1134570803311F4097E09C002FF06C0D394D3949A
S113458004C0802F867809F0D39403FD11C000FF86
S113459006C01C2DD51480F4150D1D190DC0D5149D
S11345A058F4B70180E290E00E94C725D394F7CF76
S11345B0D51410F45D1801C0512C04FF10C0B701CC
S11345C080E390E00E94C72502FF17C001FD03C0ED
S11345D088E790E002C088E590E0B7010CC0802F26
S11345E0867859F001FF02C08BE201C080E207FD2A
S11345F08DE2B70190E00E94C725C11638F4B701D7
S113460080E390E00E94C7251150F7CFCA94F301CC
S1134610EC0DF11D8081B70190E00E94C725C11007
S1134620F5CF15C0F4E0F51560F584E0581A93FE53
S11346301FC0011127C02C8523FF2AC000E112E00E
S1134640392D3071932EF8018491811124C05520A5
S113465009F4E4CCB70180E290E00E94C7255A94A3
S1134660F6CFF7018681978126C08FEF9FEF23C095
S1134670B70180E290E00E94C7255A945110F8CF08
S1134680D8CF512CB701802F90E00E94C725D3CFFB
S113469004E112E0D5CF91108052B70190E00E945E
S11346A0C7250F5F1F4FCFCF23E0251510F483E0FC
S11346B0BDCF512CC0CF6096CDBFDEBFDF91CF916F
S11346C01F910F91FF90EF90DF90CF90BF90AF902C
S11346D09F908F907F906F905F904F903F902F901E
S11346E00895AA1BBB1B51E107C0AA1FBB1FA61735
S11346F0B70710F0A61BB70B881F991F5A95A9F787
S113470080959095BC01CD01089597FB072E16F472
S1134710009407D077FD09D00E94712307FC05D0CF
S11347203EF4909581959F4F0895709561957F4FC4
S11347300895A29FB001B39FC001A39F700D811D76
S11347401124911DB29F700D811D1124911D089596
S11347500F931F93CF93DF938230910510F482E07F
S113476090E0E0912A22F0912B2220E030E0A0E0BA
S1134770B0E0309719F140815181028113814817CB
S11347805907C8F08417950769F4109731F0129609
S11347900C93129713961C9327C000932A2210930C
S11347A02B2222C02115310519F04217530718F4A2
S11347B09A01BD01EF01DF01F801DBCF21153105BD
S11347C0F9F0281B390B2430310580F48A819B8150
S11347D06115710521F0FB018283938304C08093EA
S11347E02A2290932B22FE01329644C0FE01E20F4E
S11347F0F31F8193919322503109288339833AC05E
S11348002091282230912922232B41F42091022047
S113481030910320209328223093292220910020D4
S1134820309101202115310541F42DB73EB7409157
S1134830042050910520241B350BE0912822F0918F
S11348402922E217F307A0F42E1B3F0B2817390780
S113485078F0AC014E5F5F4F2417350748F04E0FD8
S11348605F1F40932822509329228193919302C081
S1134870E0E0F0E0CF01DF91CF911F910F91089517
S1134880CF93DF93009709F481C0FC013297128221
S11348901382A0912A22B0912B22109781F42081B7
S11348A03181820F931F20912822309129222817C9
S11348B0390751F5E0932822F093292267C0ED01CE
S11348C020E030E0CE17DF0740F44A815B819E018F
S11348D041155105F1F0EA01F5CFC283D38340813C
S11348E05181840F951FC817D90759F4888199817C
S11348F0840F951F0296808391838A819B81828392
S113490093832115310529F4E0932A22F0932B2275
S11349103DC0E901EA83FB8349915991C40FD51F36
S1134920EC17FD0761F480819181840F951F029635
S1134930E90188839983828193818A839B83E0E060
S1134940F0E012968D919C911397009719F0FD0158
S1134950DC01F7CF8D919C9111979D012E5F3F4F04
S1134960820F931F2091282230912922281739077A
S113497069F4309729F410922A2210922B2202C053
S113498012821382A0932822B0932922DF91CF911F
S11349900895283008F027E03327DA01990F311DF4
S11349A087FD916000966105710539F432602E5FD0
S11349B03D9330E32A95E1F708959F3F30F0803826
S11349C07105610509F03C5F3C5F3D93913008F04F
S11349D08068911DDF93CF931F930F93FF92EF9203
S11349E0192F987F9695E92F96959695E90FFF27AD
S11349F0EE58FD4F99273327EE24FF24A701E70142
S1134A0005900894079428F4360FE71EF81E491FF2
S1134A10511D660F771F881F991F0694A1F70590F3
S1134A20079428F4E70EF81E491F561FC11D770F7F
S1134A30881F991F661F0694A1F70590079428F410
S1134A40F80E491F561FC71FD11D880F991F661FD7
S1134A50771F0694A1F70590079420F4490F561F79
S1134A60C71FD81F990F661F771F881F0694A9F7C1
S1134A7084911095177041F0D695C7955795479531
S1134A80F794E7941A95C1F7E8E1F2E06894159079
S1134A90159135916591959105907FE27395E11893
S1134AA0F10A430B560BC90BD009C0F7E10CF11EF8
S1134AB0431F561FC91FD01D7EF4703311F48A950D
S1134AC0E6CFE894015030F0080F0AF400270217EB
S1134AD008F4202F2395022F7A3328F079E37D936D
S1134AE02A95E9F710C07D932A9589F6069497953F
S1134AF06795379517951794E118F10A430B560BF0
S1134B00C90BD00998F023957E9173957A3308F0F8
S1134B1070E37C932013B8F77E9170617D9330F03D
S1134B20839571E37D9370E32A95E1F71124EF9067
S1134B30FF900F911F91CF91DF91992787FD909559
S1134B400895FC010590615070400110D8F78095DC
S1134B5090958E0F9F1F0895FB01DC0102C0019008
S1134B600D9241505040D8F70895DC0101C06D9377
S1134B7041505040E0F70895FC01615070400190AD
S1134B800110D8F7809590958E0F9F1F08950F936D
S1134B901F93CF93DF93FB01238121FD03C08FEF8C
S1134BA09FEF2CC022FF16C0468157812481358196
S1134BB04217530744F4A081B1819D012F5F3F4FF9
S1134BC0208331838C93268137812F5F3F4F268347
S1134BD0378314C08B01EC01FB010084F185E02DC7
S1134BE01995892BE1F6D80116968D919C9117970A
S1134BF0019616968D939C931797CE01DF91CF91D2
S1134C001F910F910895FA01AA27283051F12031FC
S1134C1081F1E8946F936E7F6E5F7F4F8F4F9F4F4C
S1134C20AF4FB1E03ED0B4E03CD0670F781F891F8E
S1134C309A1FA11D680F791F8A1F911DA11D6A0F5C
S1134C40711D811D911DA11D20D009F468943F910F
S1134C502AE0269F11243019305D3193DEF6CF010E
S1134C600895462F4770405D4193B3E00FD0C9F7D4
S1134C70F6CF462F4F70405D4A3318F0495D31FD41
S1134C804052419302D0A9F7EACFB4E0A695979594
S1134C90879577956795BA95C9F70097610571056A
S1134CA008959B01AC010A2E0694579547953795B4
S1134CB02795BA95C9F7620F731F841F951FA01D0E
S1094CC00895F894FFCFF3
S1134CC600002C222000FF3F2E2E2F4472697665A9
S1134CD672732F447269766572706C393832335543
S1134CE6534152542E63002E2E2F4672656552543C
S1134CF64F532F71756575652E63002E2E2F4672E0
S1134D06656552544F532F7461736B732E63004958
S1134D16444C45000925630925750925750925753A
S1134D260D0A0009256C750909256C7525250D0ADA
S1134D360009256C7509093C3125250D0A004552E3
S1134D46524F523A206D656D6F727920616C6C6FAB
S1134D56636174696F6E206661696C65640D0A002F
S1134D66535441434B206F766572666C6F772069A6
S1134D766E207461736B20004173736572742069CD
S1134D866E2066696C6520002C206C696E65206E49
S1134D967220006D6F74706F73006D6F747370643E
S1114DA60072676200737461727475700000AD
S9030000FC
